{
  "contractName": "DieselPrice",
  "abi": [
    {
      "constant": true,
      "inputs": [],
      "name": "dieselPriceUSD",
      "outputs": [
        {
          "name": "",
          "type": "string"
        }
      ],
      "payable": false,
      "stateMutability": "view",
      "type": "function"
    },
    {
      "inputs": [],
      "payable": false,
      "stateMutability": "nonpayable",
      "type": "constructor"
    },
    {
      "anonymous": false,
      "inputs": [
        {
          "indexed": false,
          "name": "description",
          "type": "string"
        }
      ],
      "name": "LogInfo",
      "type": "event"
    },
    {
      "anonymous": false,
      "inputs": [
        {
          "indexed": false,
          "name": "price",
          "type": "string"
        }
      ],
      "name": "NewDieselPrice",
      "type": "event"
    },
    {
      "constant": false,
      "inputs": [
        {
          "name": "myid",
          "type": "bytes32"
        },
        {
          "name": "result",
          "type": "string"
        }
      ],
      "name": "__callback",
      "outputs": [],
      "payable": false,
      "stateMutability": "nonpayable",
      "type": "function"
    },
    {
      "constant": false,
      "inputs": [
        {
          "name": "myid",
          "type": "bytes32"
        },
        {
          "name": "result",
          "type": "string"
        },
        {
          "name": "proof",
          "type": "bytes"
        }
      ],
      "name": "__callback",
      "outputs": [],
      "payable": false,
      "stateMutability": "nonpayable",
      "type": "function"
    },
    {
      "constant": false,
      "inputs": [],
      "name": "update",
      "outputs": [],
      "payable": true,
      "stateMutability": "payable",
      "type": "function"
    }
  ],
  "bytecode": "0x60806040523480156200001157600080fd5b507397f947b118617bed811983833ba13c527ff05ecb6000806101000a81548173ffffffffffffffffffffffffffffffffffffffff021916908373ffffffffffffffffffffffffffffffffffffffff160217905550620000c860017f01000000000000000000000000000000000000000000000000000000000000000260107f01000000000000000000000000000000000000000000000000000000000000000217620000e7640100000000026401000000009004565b620000e16200049b640100000000026401000000009004565b62001756565b60008060009054906101000a900473ffffffffffffffffffffffffffffffffffffffff1673ffffffffffffffffffffffffffffffffffffffff1614806200016857506000620001666000809054906101000a900473ffffffffffffffffffffffffffffffffffffffff1662000727640100000000026401000000009004565b145b156200018b5762000189600062000732640100000000026401000000009004565b505b6000809054906101000a900473ffffffffffffffffffffffffffffffffffffffff1673ffffffffffffffffffffffffffffffffffffffff166338cc48316040518163ffffffff167c0100000000000000000000000000000000000000000000000000000000028152600401602060405180830381600087803b1580156200021157600080fd5b505af115801562000226573d6000803e3d6000fd5b505050506040513d60208110156200023d57600080fd5b810190808051906020019092919050505073ffffffffffffffffffffffffffffffffffffffff16600160009054906101000a900473ffffffffffffffffffffffffffffffffffffffff1673ffffffffffffffffffffffffffffffffffffffff16141515620003a9576000809054906101000a900473ffffffffffffffffffffffffffffffffffffffff1673ffffffffffffffffffffffffffffffffffffffff166338cc48316040518163ffffffff167c0100000000000000000000000000000000000000000000000000000000028152600401602060405180830381600087803b1580156200032b57600080fd5b505af115801562000340573d6000803e3d6000fd5b505050506040513d60208110156200035757600080fd5b8101908080519060200190929190505050600160006101000a81548173ffffffffffffffffffffffffffffffffffffffff021916908373ffffffffffffffffffffffffffffffffffffffff1602179055505b600160009054906101000a900473ffffffffffffffffffffffffffffffffffffffff1673ffffffffffffffffffffffffffffffffffffffff1663688dcfd7826040518263ffffffff167c010000000000000000000000000000000000000000000000000000000002815260040180827effffffffffffffffffffffffffffffffffffffffffffffffffffffffffffff19167effffffffffffffffffffffffffffffffffffffffffffffffffffffffffffff19168152602001915050600060405180830381600087803b1580156200047f57600080fd5b505af115801562000494573d6000803e3d6000fd5b5050505050565b3073ffffffffffffffffffffffffffffffffffffffff1631620005026040805190810160405280600381526020017f55524c000000000000000000000000000000000000000000000000000000000081525062000754640100000000026401000000009004565b1115620005c3577ffee95ecae0c8f7f0743ec0ad254c78ab75e5ecca9f1ddcd9f11f9a98124b96bc60405180806020018281038252604b8152602001807f4f7261636c697a6520717565727920776173204e4f542073656e742c20706c6581526020017f6173652061646420736f6d652045544820746f20636f76657220666f7220746881526020017f652071756572792066656500000000000000000000000000000000000000000081525060600191505060405180910390a162000725565b7ffee95ecae0c8f7f0743ec0ad254c78ab75e5ecca9f1ddcd9f11f9a98124b96bc6040518080602001828103825260358152602001807f4f7261636c697a65207175657279207761732073656e742c207374616e64696e81526020017f6720627920666f722074686520616e737765722e2e000000000000000000000081525060400191505060405180910390a1620007236040805190810160405280600381526020017f55524c0000000000000000000000000000000000000000000000000000000000815250608060405190810160405280604581526020017f786d6c2868747470733a2f2f7777772e6675656c65636f6e6f6d792e676f762f81526020017f77732f726573742f6675656c707269636573292e6675656c5072696365732e6481526020017f696573656c00000000000000000000000000000000000000000000000000000081525062000b55640100000000026401000000009004565b505b565b6000813b9050919050565b60006200074d62001133640100000000026401000000009004565b9050919050565b6000806000809054906101000a900473ffffffffffffffffffffffffffffffffffffffff1673ffffffffffffffffffffffffffffffffffffffff161480620007d657506000620007d46000809054906101000a900473ffffffffffffffffffffffffffffffffffffffff1662000727640100000000026401000000009004565b145b15620007f957620007f7600062000732640100000000026401000000009004565b505b6000809054906101000a900473ffffffffffffffffffffffffffffffffffffffff1673ffffffffffffffffffffffffffffffffffffffff166338cc48316040518163ffffffff167c0100000000000000000000000000000000000000000000000000000000028152600401602060405180830381600087803b1580156200087f57600080fd5b505af115801562000894573d6000803e3d6000fd5b505050506040513d6020811015620008ab57600080fd5b810190808051906020019092919050505073ffffffffffffffffffffffffffffffffffffffff16600160009054906101000a900473ffffffffffffffffffffffffffffffffffffffff1673ffffffffffffffffffffffffffffffffffffffff1614151562000a17576000809054906101000a900473ffffffffffffffffffffffffffffffffffffffff1673ffffffffffffffffffffffffffffffffffffffff166338cc48316040518163ffffffff167c0100000000000000000000000000000000000000000000000000000000028152600401602060405180830381600087803b1580156200099957600080fd5b505af1158015620009ae573d6000803e3d6000fd5b505050506040513d6020811015620009c557600080fd5b8101908080519060200190929190505050600160006101000a81548173ffffffffffffffffffffffffffffffffffffffff021916908373ffffffffffffffffffffffffffffffffffffffff1602179055505b600160009054906101000a900473ffffffffffffffffffffffffffffffffffffffff1673ffffffffffffffffffffffffffffffffffffffff1663524f3889836040518263ffffffff167c01000000000000000000000000000000000000000000000000000000000281526004018080602001828103825283818151815260200191508051906020019080838360005b8381101562000ac357808201518184015260208101905062000aa6565b50505050905090810190601f16801562000af15780820380516001836020036101000a031916815260200191505b5092505050602060405180830381600087803b15801562000b1157600080fd5b505af115801562000b26573d6000803e3d6000fd5b505050506040513d602081101562000b3d57600080fd5b81019080805190602001909291905050509050919050565b60008060008060009054906101000a900473ffffffffffffffffffffffffffffffffffffffff1673ffffffffffffffffffffffffffffffffffffffff16148062000bd95750600062000bd76000809054906101000a900473ffffffffffffffffffffffffffffffffffffffff1662000727640100000000026401000000009004565b145b1562000bfc5762000bfa600062000732640100000000026401000000009004565b505b6000809054906101000a900473ffffffffffffffffffffffffffffffffffffffff1673ffffffffffffffffffffffffffffffffffffffff166338cc48316040518163ffffffff167c0100000000000000000000000000000000000000000000000000000000028152600401602060405180830381600087803b15801562000c8257600080fd5b505af115801562000c97573d6000803e3d6000fd5b505050506040513d602081101562000cae57600080fd5b810190808051906020019092919050505073ffffffffffffffffffffffffffffffffffffffff16600160009054906101000a900473ffffffffffffffffffffffffffffffffffffffff1673ffffffffffffffffffffffffffffffffffffffff1614151562000e1a576000809054906101000a900473ffffffffffffffffffffffffffffffffffffffff1673ffffffffffffffffffffffffffffffffffffffff166338cc48316040518163ffffffff167c0100000000000000000000000000000000000000000000000000000000028152600401602060405180830381600087803b15801562000d9c57600080fd5b505af115801562000db1573d6000803e3d6000fd5b505050506040513d602081101562000dc857600080fd5b8101908080519060200190929190505050600160006101000a81548173ffffffffffffffffffffffffffffffffffffffff021916908373ffffffffffffffffffffffffffffffffffffffff1602179055505b600160009054906101000a900473ffffffffffffffffffffffffffffffffffffffff1673ffffffffffffffffffffffffffffffffffffffff1663524f3889856040518263ffffffff167c01000000000000000000000000000000000000000000000000000000000281526004018080602001828103825283818151815260200191508051906020019080838360005b8381101562000ec657808201518184015260208101905062000ea9565b50505050905090810190601f16801562000ef45780820380516001836020036101000a031916815260200191505b5092505050602060405180830381600087803b15801562000f1457600080fd5b505af115801562000f29573d6000803e3d6000fd5b505050506040513d602081101562000f4057600080fd5b8101908080519060200190929190505050905062030d403a02670de0b6b3a76400000181111562000f7857600060010291506200112c565b600160009054906101000a900473ffffffffffffffffffffffffffffffffffffffff1673ffffffffffffffffffffffffffffffffffffffff1663adf59f9982600087876040518563ffffffff167c0100000000000000000000000000000000000000000000000000000000028152600401808481526020018060200180602001838103835285818151815260200191508051906020019080838360005b838110156200103257808201518184015260208101905062001015565b50505050905090810190601f168015620010605780820380516001836020036101000a031916815260200191505b50838103825284818151815260200191508051906020019080838360005b838110156200109b5780820151818401526020810190506200107e565b50505050905090810190601f168015620010c95780820380516001836020036101000a031916815260200191505b50955050505050506020604051808303818588803b158015620010eb57600080fd5b505af115801562001100573d6000803e3d6000fd5b50505050506040513d60208110156200111857600080fd5b810190808051906020019092919050505091505b5092915050565b60008062001164731d3b2638a7cc9f2cb3d298a3da7a90b67e5506ed62000727640100000000026401000000009004565b11156200121857731d3b2638a7cc9f2cb3d298a3da7a90b67e5506ed6000806101000a81548173ffffffffffffffffffffffffffffffffffffffff021916908373ffffffffffffffffffffffffffffffffffffffff1602179055506200120e6040805190810160405280600b81526020017f6574685f6d61696e6e65740000000000000000000000000000000000000000008152506200168b640100000000026401000000009004565b6001905062001688565b60006200124873c03a2615d5efaf5f49f60b7bb6583eaec212fdf162000727640100000000026401000000009004565b1115620012fc5773c03a2615d5efaf5f49f60b7bb6583eaec212fdf16000806101000a81548173ffffffffffffffffffffffffffffffffffffffff021916908373ffffffffffffffffffffffffffffffffffffffff160217905550620012f26040805190810160405280600c81526020017f6574685f726f707374656e3300000000000000000000000000000000000000008152506200168b640100000000026401000000009004565b6001905062001688565b60006200132c73b7a07bcf2ba2f2703b24c0691b5278999c59ac7e62000727640100000000026401000000009004565b1115620013e05773b7a07bcf2ba2f2703b24c0691b5278999c59ac7e6000806101000a81548173ffffffffffffffffffffffffffffffffffffffff021916908373ffffffffffffffffffffffffffffffffffffffff160217905550620013d66040805190810160405280600981526020017f6574685f6b6f76616e00000000000000000000000000000000000000000000008152506200168b640100000000026401000000009004565b6001905062001688565b60006200141073146500cfd35b22e4a392fe0adc06de1a1368ed4862000727640100000000026401000000009004565b1115620014c45773146500cfd35b22e4a392fe0adc06de1a1368ed486000806101000a81548173ffffffffffffffffffffffffffffffffffffffff021916908373ffffffffffffffffffffffffffffffffffffffff160217905550620014ba6040805190810160405280600b81526020017f6574685f72696e6b6562790000000000000000000000000000000000000000008152506200168b640100000000026401000000009004565b6001905062001688565b6000620014f4736f485c8bf6fc43ea212e93bbf8ce046c7f1cb47562000727640100000000026401000000009004565b11156200155957736f485c8bf6fc43ea212e93bbf8ce046c7f1cb4756000806101000a81548173ffffffffffffffffffffffffffffffffffffffff021916908373ffffffffffffffffffffffffffffffffffffffff1602179055506001905062001688565b6000620015897320e12a1f859b3feae5fb2a0a32c18f5a65555bbf62000727640100000000026401000000009004565b1115620015ee577320e12a1f859b3feae5fb2a0a32c18f5a65555bbf6000806101000a81548173ffffffffffffffffffffffffffffffffffffffff021916908373ffffffffffffffffffffffffffffffffffffffff1602179055506001905062001688565b60006200161e7351efaf4c8b3c9afbd5ab9f4bbc82784ab6ef8faa62000727640100000000026401000000009004565b111562001683577351efaf4c8b3c9afbd5ab9f4bbc82784ab6ef8faa6000806101000a81548173ffffffffffffffffffffffffffffffffffffffff021916908373ffffffffffffffffffffffffffffffffffffffff1602179055506001905062001688565b600090505b90565b8060029080519060200190620016a3929190620016a7565b5050565b828054600181600116156101000203166002900490600052602060002090601f016020900481019282601f10620016ea57805160ff19168380011785556200171b565b828001600101855582156200171b579182015b828111156200171a578251825591602001919060010190620016fd565b5b5090506200172a91906200172e565b5090565b6200175391905b808211156200174f57600081600090555060010162001735565b5090565b90565b6118dd80620017666000396000f300608060405260043610610062576000357c0100000000000000000000000000000000000000000000000000000000900463ffffffff16806327dc297e1461006757806338bbfa50146100de5780633e0ae5881461019b578063a2e620451461022b575b600080fd5b34801561007357600080fd5b506100dc6004803603810190808035600019169060200190929190803590602001908201803590602001908080601f0160208091040260200160405190810160405280939291908181526020018383808284378201915050505050509192919290505050610235565b005b3480156100ea57600080fd5b506101996004803603810190808035600019169060200190929190803590602001908201803590602001908080601f0160208091040260200160405190810160405280939291908181526020018383808284378201915050505050509192919290803590602001908201803590602001908080601f0160208091040260200160405190810160405280939291908181526020018383808284378201915050505050509192919290505050610278565b005b3480156101a757600080fd5b506101b0610371565b6040518080602001828103825283818151815260200191508051906020019080838360005b838110156101f05780820151818401526020810190506101d5565b50505050905090810190601f16801561021d5780820380516001836020036101000a031916815260200191505b509250505060405180910390f35b61023361040f565b005b610274828260006040519080825280601f01601f19166020018201604052801561026e5781602001602082028038833980820191505090505b50610278565b5050565b610280610677565b73ffffffffffffffffffffffffffffffffffffffff163373ffffffffffffffffffffffffffffffffffffffff161415156102b957600080fd5b7fc304083a35fe753587063bd4486ba9a62b6e4a539f328e88895d44323e0f99f4826040518080602001828103825283818151815260200191508051906020019080838360005b8381101561031b578082015181840152602081019050610300565b50505050905090810190601f1680156103485780820380516001836020036101000a031916815260200191505b509250505060405180910390a1816005908051906020019061036b92919061180c565b50505050565b60058054600181600116156101000203166002900480601f0160208091040260200160405190810160405280929190818152602001828054600181600116156101000203166002900480156104075780601f106103dc57610100808354040283529160200191610407565b820191906000526020600020905b8154815290600101906020018083116103ea57829003601f168201915b505050505081565b3073ffffffffffffffffffffffffffffffffffffffff16316104656040805190810160405280600381526020017f55524c00000000000000000000000000000000000000000000000000000000008152506109d5565b1115610524577ffee95ecae0c8f7f0743ec0ad254c78ab75e5ecca9f1ddcd9f11f9a98124b96bc60405180806020018281038252604b8152602001807f4f7261636c697a6520717565727920776173204e4f542073656e742c20706c6581526020017f6173652061646420736f6d652045544820746f20636f76657220666f7220746881526020017f652071756572792066656500000000000000000000000000000000000000000081525060600191505060405180910390a1610675565b7ffee95ecae0c8f7f0743ec0ad254c78ab75e5ecca9f1ddcd9f11f9a98124b96bc6040518080602001828103825260358152602001807f4f7261636c697a65207175657279207761732073656e742c207374616e64696e81526020017f6720627920666f722074686520616e737765722e2e000000000000000000000081525060400191505060405180910390a16106736040805190810160405280600381526020017f55524c0000000000000000000000000000000000000000000000000000000000815250608060405190810160405280604581526020017f786d6c2868747470733a2f2f7777772e6675656c65636f6e6f6d792e676f762f81526020017f77732f726573742f6675656c707269636573292e6675656c5072696365732e6481526020017f696573656c000000000000000000000000000000000000000000000000000000815250610da5565b505b565b6000806000809054906101000a900473ffffffffffffffffffffffffffffffffffffffff1673ffffffffffffffffffffffffffffffffffffffff1614806106e7575060006106e56000809054906101000a900473ffffffffffffffffffffffffffffffffffffffff16611347565b145b156106f8576106f66000611352565b505b6000809054906101000a900473ffffffffffffffffffffffffffffffffffffffff1673ffffffffffffffffffffffffffffffffffffffff166338cc48316040518163ffffffff167c0100000000000000000000000000000000000000000000000000000000028152600401602060405180830381600087803b15801561077d57600080fd5b505af1158015610791573d6000803e3d6000fd5b505050506040513d60208110156107a757600080fd5b810190808051906020019092919050505073ffffffffffffffffffffffffffffffffffffffff16600160009054906101000a900473ffffffffffffffffffffffffffffffffffffffff1673ffffffffffffffffffffffffffffffffffffffff1614151561090f576000809054906101000a900473ffffffffffffffffffffffffffffffffffffffff1673ffffffffffffffffffffffffffffffffffffffff166338cc48316040518163ffffffff167c0100000000000000000000000000000000000000000000000000000000028152600401602060405180830381600087803b15801561089357600080fd5b505af11580156108a7573d6000803e3d6000fd5b505050506040513d60208110156108bd57600080fd5b8101908080519060200190929190505050600160006101000a81548173ffffffffffffffffffffffffffffffffffffffff021916908373ffffffffffffffffffffffffffffffffffffffff1602179055505b600160009054906101000a900473ffffffffffffffffffffffffffffffffffffffff1673ffffffffffffffffffffffffffffffffffffffff1663c281d19e6040518163ffffffff167c0100000000000000000000000000000000000000000000000000000000028152600401602060405180830381600087803b15801561099557600080fd5b505af11580156109a9573d6000803e3d6000fd5b505050506040513d60208110156109bf57600080fd5b8101908080519060200190929190505050905090565b6000806000809054906101000a900473ffffffffffffffffffffffffffffffffffffffff1673ffffffffffffffffffffffffffffffffffffffff161480610a4557506000610a436000809054906101000a900473ffffffffffffffffffffffffffffffffffffffff16611347565b145b15610a5657610a546000611352565b505b6000809054906101000a900473ffffffffffffffffffffffffffffffffffffffff1673ffffffffffffffffffffffffffffffffffffffff166338cc48316040518163ffffffff167c0100000000000000000000000000000000000000000000000000000000028152600401602060405180830381600087803b158015610adb57600080fd5b505af1158015610aef573d6000803e3d6000fd5b505050506040513d6020811015610b0557600080fd5b810190808051906020019092919050505073ffffffffffffffffffffffffffffffffffffffff16600160009054906101000a900473ffffffffffffffffffffffffffffffffffffffff1673ffffffffffffffffffffffffffffffffffffffff16141515610c6d576000809054906101000a900473ffffffffffffffffffffffffffffffffffffffff1673ffffffffffffffffffffffffffffffffffffffff166338cc48316040518163ffffffff167c0100000000000000000000000000000000000000000000000000000000028152600401602060405180830381600087803b158015610bf157600080fd5b505af1158015610c05573d6000803e3d6000fd5b505050506040513d6020811015610c1b57600080fd5b8101908080519060200190929190505050600160006101000a81548173ffffffffffffffffffffffffffffffffffffffff021916908373ffffffffffffffffffffffffffffffffffffffff1602179055505b600160009054906101000a900473ffffffffffffffffffffffffffffffffffffffff1673ffffffffffffffffffffffffffffffffffffffff1663524f3889836040518263ffffffff167c01000000000000000000000000000000000000000000000000000000000281526004018080602001828103825283818151815260200191508051906020019080838360005b83811015610d17578082015181840152602081019050610cfc565b50505050905090810190601f168015610d445780820380516001836020036101000a031916815260200191505b5092505050602060405180830381600087803b158015610d6357600080fd5b505af1158015610d77573d6000803e3d6000fd5b505050506040513d6020811015610d8d57600080fd5b81019080805190602001909291905050509050919050565b60008060008060009054906101000a900473ffffffffffffffffffffffffffffffffffffffff1673ffffffffffffffffffffffffffffffffffffffff161480610e1757506000610e156000809054906101000a900473ffffffffffffffffffffffffffffffffffffffff16611347565b145b15610e2857610e266000611352565b505b6000809054906101000a900473ffffffffffffffffffffffffffffffffffffffff1673ffffffffffffffffffffffffffffffffffffffff166338cc48316040518163ffffffff167c0100000000000000000000000000000000000000000000000000000000028152600401602060405180830381600087803b158015610ead57600080fd5b505af1158015610ec1573d6000803e3d6000fd5b505050506040513d6020811015610ed757600080fd5b810190808051906020019092919050505073ffffffffffffffffffffffffffffffffffffffff16600160009054906101000a900473ffffffffffffffffffffffffffffffffffffffff1673ffffffffffffffffffffffffffffffffffffffff1614151561103f576000809054906101000a900473ffffffffffffffffffffffffffffffffffffffff1673ffffffffffffffffffffffffffffffffffffffff166338cc48316040518163ffffffff167c0100000000000000000000000000000000000000000000000000000000028152600401602060405180830381600087803b158015610fc357600080fd5b505af1158015610fd7573d6000803e3d6000fd5b505050506040513d6020811015610fed57600080fd5b8101908080519060200190929190505050600160006101000a81548173ffffffffffffffffffffffffffffffffffffffff021916908373ffffffffffffffffffffffffffffffffffffffff1602179055505b600160009054906101000a900473ffffffffffffffffffffffffffffffffffffffff1673ffffffffffffffffffffffffffffffffffffffff1663524f3889856040518263ffffffff167c01000000000000000000000000000000000000000000000000000000000281526004018080602001828103825283818151815260200191508051906020019080838360005b838110156110e95780820151818401526020810190506110ce565b50505050905090810190601f1680156111165780820380516001836020036101000a031916815260200191505b5092505050602060405180830381600087803b15801561113557600080fd5b505af1158015611149573d6000803e3d6000fd5b505050506040513d602081101561115f57600080fd5b8101908080519060200190929190505050905062030d403a02670de0b6b3a7640000018111156111955760006001029150611340565b600160009054906101000a900473ffffffffffffffffffffffffffffffffffffffff1673ffffffffffffffffffffffffffffffffffffffff1663adf59f9982600087876040518563ffffffff167c0100000000000000000000000000000000000000000000000000000000028152600401808481526020018060200180602001838103835285818151815260200191508051906020019080838360005b8381101561124d578082015181840152602081019050611232565b50505050905090810190601f16801561127a5780820380516001836020036101000a031916815260200191505b50838103825284818151815260200191508051906020019080838360005b838110156112b3578082015181840152602081019050611298565b50505050905090810190601f1680156112e05780820380516001836020036101000a031916815260200191505b50955050505050506020604051808303818588803b15801561130157600080fd5b505af1158015611315573d6000803e3d6000fd5b50505050506040513d602081101561132c57600080fd5b810190808051906020019092919050505091505b5092915050565b6000813b9050919050565b600061135c611363565b9050919050565b600080611383731d3b2638a7cc9f2cb3d298a3da7a90b67e5506ed611347565b111561142457731d3b2638a7cc9f2cb3d298a3da7a90b67e5506ed6000806101000a81548173ffffffffffffffffffffffffffffffffffffffff021916908373ffffffffffffffffffffffffffffffffffffffff16021790555061141b6040805190810160405280600b81526020017f6574685f6d61696e6e65740000000000000000000000000000000000000000008152506117f2565b600190506117ef565b600061144373c03a2615d5efaf5f49f60b7bb6583eaec212fdf1611347565b11156114e45773c03a2615d5efaf5f49f60b7bb6583eaec212fdf16000806101000a81548173ffffffffffffffffffffffffffffffffffffffff021916908373ffffffffffffffffffffffffffffffffffffffff1602179055506114db6040805190810160405280600c81526020017f6574685f726f707374656e3300000000000000000000000000000000000000008152506117f2565b600190506117ef565b600061150373b7a07bcf2ba2f2703b24c0691b5278999c59ac7e611347565b11156115a45773b7a07bcf2ba2f2703b24c0691b5278999c59ac7e6000806101000a81548173ffffffffffffffffffffffffffffffffffffffff021916908373ffffffffffffffffffffffffffffffffffffffff16021790555061159b6040805190810160405280600981526020017f6574685f6b6f76616e00000000000000000000000000000000000000000000008152506117f2565b600190506117ef565b60006115c373146500cfd35b22e4a392fe0adc06de1a1368ed48611347565b11156116645773146500cfd35b22e4a392fe0adc06de1a1368ed486000806101000a81548173ffffffffffffffffffffffffffffffffffffffff021916908373ffffffffffffffffffffffffffffffffffffffff16021790555061165b6040805190810160405280600b81526020017f6574685f72696e6b6562790000000000000000000000000000000000000000008152506117f2565b600190506117ef565b6000611683736f485c8bf6fc43ea212e93bbf8ce046c7f1cb475611347565b11156116e657736f485c8bf6fc43ea212e93bbf8ce046c7f1cb4756000806101000a81548173ffffffffffffffffffffffffffffffffffffffff021916908373ffffffffffffffffffffffffffffffffffffffff160217905550600190506117ef565b60006117057320e12a1f859b3feae5fb2a0a32c18f5a65555bbf611347565b1115611768577320e12a1f859b3feae5fb2a0a32c18f5a65555bbf6000806101000a81548173ffffffffffffffffffffffffffffffffffffffff021916908373ffffffffffffffffffffffffffffffffffffffff160217905550600190506117ef565b60006117877351efaf4c8b3c9afbd5ab9f4bbc82784ab6ef8faa611347565b11156117ea577351efaf4c8b3c9afbd5ab9f4bbc82784ab6ef8faa6000806101000a81548173ffffffffffffffffffffffffffffffffffffffff021916908373ffffffffffffffffffffffffffffffffffffffff160217905550600190506117ef565b600090505b90565b806002908051906020019061180892919061180c565b5050565b828054600181600116156101000203166002900490600052602060002090601f016020900481019282601f1061184d57805160ff191683800117855561187b565b8280016001018555821561187b579182015b8281111561187a57825182559160200191906001019061185f565b5b509050611888919061188c565b5090565b6118ae91905b808211156118aa576000816000905550600101611892565b5090565b905600a165627a7a723058205885b78bb54b4f638eee830a2901224a4dbf5687b75b20a6c6515054173815970029",
  "source": "pragma solidity ^0.4.21;\r\n\r\nimport \"installed_contracts/oraclize-api/contracts/usingOraclize.sol\";\r\n\r\ncontract DieselPrice is usingOraclize {\r\n\r\n    string public dieselPriceUSD;\r\n\r\n    event LogInfo(string description);\r\n    event NewDieselPrice(string price);\r\n\r\n    constructor() public {\r\n        OAR = OraclizeAddrResolverI(0x97f947b118617BEd811983833bA13c527ff05EcB);\r\n        oraclize_setProof(proofType_TLSNotary | proofStorage_IPFS);\r\n        update();\r\n    }\r\n\r\n    function __callback(bytes32 myid, string result, bytes proof) public {\r\n        if(msg.sender != oraclize_cbAddress()) revert();\r\n        emit NewDieselPrice(result);\r\n        dieselPriceUSD = result;\r\n    }\r\n\r\n    function update() public payable {\r\n        if(oraclize_getPrice(\"URL\") > address(this).balance) {\r\n            emit LogInfo(\"Oraclize query was NOT sent, please add some ETH to cover for the query fee\");\r\n        } else {\r\n            emit LogInfo(\"Oraclize query was sent, standing by for the answer..\");\r\n            oraclize_query(\"URL\", \"xml(https://www.fueleconomy.gov/ws/rest/fuelprices).fuelPrices.diesel\");\r\n        }\r\n    }\r\n\r\n}",
  "sourcePath": "D:\\Masterarbeit\\VersicherungsBackend\\development\\contracts\\DieselPrice.sol",
  "compiler": {
    "name": "solc",
    "version": "0.4.24+commit.e67f0147.Emscripten.clang"
  },
  "schemaVersion": "2.0.1",
  "updatedAt": "2018-11-21T17:58:15.444Z"
}