{
  "contractName": "WeatherInsurance",
  "abi": [
    {
      "constant": true,
      "inputs": [],
      "name": "startDate",
      "outputs": [
        {
          "name": "",
          "type": "uint256"
        }
      ],
      "payable": false,
      "stateMutability": "view",
      "type": "function"
    },
    {
      "constant": true,
      "inputs": [],
      "name": "payoutInsurance",
      "outputs": [
        {
          "name": "",
          "type": "bool"
        }
      ],
      "payable": false,
      "stateMutability": "view",
      "type": "function"
    },
    {
      "constant": true,
      "inputs": [],
      "name": "customer",
      "outputs": [
        {
          "name": "",
          "type": "address"
        }
      ],
      "payable": false,
      "stateMutability": "view",
      "type": "function"
    },
    {
      "constant": true,
      "inputs": [],
      "name": "blocked",
      "outputs": [
        {
          "name": "",
          "type": "bool"
        }
      ],
      "payable": false,
      "stateMutability": "view",
      "type": "function"
    },
    {
      "constant": true,
      "inputs": [],
      "name": "requestResult",
      "outputs": [
        {
          "name": "",
          "type": "uint256"
        }
      ],
      "payable": false,
      "stateMutability": "view",
      "type": "function"
    },
    {
      "constant": true,
      "inputs": [],
      "name": "trigger",
      "outputs": [
        {
          "name": "",
          "type": "string"
        }
      ],
      "payable": false,
      "stateMutability": "view",
      "type": "function"
    },
    {
      "constant": true,
      "inputs": [],
      "name": "insurance",
      "outputs": [
        {
          "name": "",
          "type": "address"
        }
      ],
      "payable": false,
      "stateMutability": "view",
      "type": "function"
    },
    {
      "constant": true,
      "inputs": [],
      "name": "place",
      "outputs": [
        {
          "name": "",
          "type": "string"
        }
      ],
      "payable": false,
      "stateMutability": "view",
      "type": "function"
    },
    {
      "constant": true,
      "inputs": [],
      "name": "receivedResult",
      "outputs": [
        {
          "name": "",
          "type": "bool"
        }
      ],
      "payable": false,
      "stateMutability": "view",
      "type": "function"
    },
    {
      "constant": true,
      "inputs": [],
      "name": "endDate",
      "outputs": [
        {
          "name": "",
          "type": "uint256"
        }
      ],
      "payable": false,
      "stateMutability": "view",
      "type": "function"
    },
    {
      "constant": true,
      "inputs": [],
      "name": "payoutCustomer",
      "outputs": [
        {
          "name": "",
          "type": "bool"
        }
      ],
      "payable": false,
      "stateMutability": "view",
      "type": "function"
    },
    {
      "inputs": [
        {
          "name": "_startDate",
          "type": "uint256"
        },
        {
          "name": "_endDate",
          "type": "uint256"
        },
        {
          "name": "_place",
          "type": "string"
        },
        {
          "name": "_trigger",
          "type": "string"
        },
        {
          "name": "_payout",
          "type": "uint256"
        },
        {
          "name": "_customer",
          "type": "address"
        }
      ],
      "payable": true,
      "stateMutability": "payable",
      "type": "constructor"
    },
    {
      "anonymous": false,
      "inputs": [
        {
          "indexed": false,
          "name": "description",
          "type": "string"
        }
      ],
      "name": "LogInfo",
      "type": "event"
    },
    {
      "constant": true,
      "inputs": [],
      "name": "checkPayout",
      "outputs": [
        {
          "name": "",
          "type": "bool"
        }
      ],
      "payable": false,
      "stateMutability": "view",
      "type": "function"
    },
    {
      "constant": false,
      "inputs": [
        {
          "name": "myid",
          "type": "bytes32"
        },
        {
          "name": "result",
          "type": "string"
        }
      ],
      "name": "__callback",
      "outputs": [],
      "payable": false,
      "stateMutability": "nonpayable",
      "type": "function"
    },
    {
      "constant": false,
      "inputs": [
        {
          "name": "myid",
          "type": "bytes32"
        },
        {
          "name": "result",
          "type": "string"
        },
        {
          "name": "proof",
          "type": "bytes"
        }
      ],
      "name": "__callback",
      "outputs": [],
      "payable": false,
      "stateMutability": "nonpayable",
      "type": "function"
    },
    {
      "constant": false,
      "inputs": [],
      "name": "isTriggered",
      "outputs": [],
      "payable": true,
      "stateMutability": "payable",
      "type": "function"
    }
  ],
  "bytecode": "0x60806040526000600a60146101000a81548160ff0219169083151502179055506000600a60156101000a81548160ff0219169083151502179055506000600a60166101000a81548160ff0219169083151502179055506000600c60006101000a81548160ff0219169083151502179055506040516200299738038062002997833981018060405281019080805190602001909291908051906020019092919080518201929190602001805182019291906020018051906020019092919080519060200190929190505050813410151515620000d957600080fd5b85600581905550846006819055508360079080519060200190620000ff929190620001fb565b50826008908051906020019062000118929190620001fb565b5033600a60006101000a81548173ffffffffffffffffffffffffffffffffffffffff021916908373ffffffffffffffffffffffffffffffffffffffff16021790555080600960006101000a81548173ffffffffffffffffffffffffffffffffffffffff021916908373ffffffffffffffffffffffffffffffffffffffff160217905550734bc8236a5ce009ce0808e349a65a869aedb323ba6000806101000a81548173ffffffffffffffffffffffffffffffffffffffff021916908373ffffffffffffffffffffffffffffffffffffffff160217905550505050505050620002aa565b828054600181600116156101000203166002900490600052602060002090601f016020900481019282601f106200023e57805160ff19168380011785556200026f565b828001600101855582156200026f579182015b828111156200026e57825182559160200191906001019062000251565b5b5090506200027e919062000282565b5090565b620002a791905b80821115620002a357600081600090555060010162000289565b5090565b90565b6126dd80620002ba6000396000f3006080604052600436106100db576000357c0100000000000000000000000000000000000000000000000000000000900463ffffffff1680630b97bc86146100e05780630c12e3931461010b57806327dc297e1461013a5780632804b2c0146101b1578063303bdd2c1461020857806338bbfa50146102375780636d7180d3146102f45780637d90c55b1461031f5780637fec8d381461032957806389cf3204146103b957806393cca91814610410578063973c739c146104a0578063b145c013146104cf578063c24a0f8b146104fe578063c3725f9314610529575b600080fd5b3480156100ec57600080fd5b506100f5610558565b6040518082815260200191505060405180910390f35b34801561011757600080fd5b5061012061055e565b604051808215151515815260200191505060405180910390f35b34801561014657600080fd5b506101af6004803603810190808035600019169060200190929190803590602001908201803590602001908080601f0160208091040260200160405190810160405280939291908181526020018383808284378201915050505050509192919290505050610571565b005b3480156101bd57600080fd5b506101c66107e3565b604051808273ffffffffffffffffffffffffffffffffffffffff1673ffffffffffffffffffffffffffffffffffffffff16815260200191505060405180910390f35b34801561021457600080fd5b5061021d610809565b604051808215151515815260200191505060405180910390f35b34801561024357600080fd5b506102f26004803603810190808035600019169060200190929190803590602001908201803590602001908080601f0160208091040260200160405190810160405280939291908181526020018383808284378201915050505050509192919290803590602001908201803590602001908080601f016020809104026020016040519081016040528093929190818152602001838380828437820191505050505050919291929050505061081c565b005b34801561030057600080fd5b50610309610821565b6040518082815260200191505060405180910390f35b610327610827565b005b34801561033557600080fd5b5061033e610b77565b6040518080602001828103825283818151815260200191508051906020019080838360005b8381101561037e578082015181840152602081019050610363565b50505050905090810190601f1680156103ab5780820380516001836020036101000a031916815260200191505b509250505060405180910390f35b3480156103c557600080fd5b506103ce610c15565b604051808273ffffffffffffffffffffffffffffffffffffffff1673ffffffffffffffffffffffffffffffffffffffff16815260200191505060405180910390f35b34801561041c57600080fd5b50610425610c3b565b6040518080602001828103825283818151815260200191508051906020019080838360005b8381101561046557808201518184015260208101905061044a565b50505050905090810190601f1680156104925780820380516001836020036101000a031916815260200191505b509250505060405180910390f35b3480156104ac57600080fd5b506104b5610cd9565b604051808215151515815260200191505060405180910390f35b3480156104db57600080fd5b506104e4610cec565b604051808215151515815260200191505060405180910390f35b34801561050a57600080fd5b50610513610d09565b6040518082815260200191505060405180910390f35b34801561053557600080fd5b5061053e610d0f565b604051808215151515815260200191505060405180910390f35b60055481565b600a60159054906101000a900460ff1681565b600c60009054906101000a900460ff161561058b57600080fd5b610593610d22565b73ffffffffffffffffffffffffffffffffffffffff163373ffffffffffffffffffffffffffffffffffffffff161415156105cc57600080fd5b6105d581611080565b600b8190555061067e60088054600181600116156101000203166002900480601f0160208091040260200160405190810160405280929190818152602001828054600181600116156101000203166002900480156106745780601f1061064957610100808354040283529160200191610674565b820191906000526020600020905b81548152906001019060200180831161065757829003601f168201915b5050505050611080565b600b5410151561072857600960009054906101000a900473ffffffffffffffffffffffffffffffffffffffff1673ffffffffffffffffffffffffffffffffffffffff166108fc3073ffffffffffffffffffffffffffffffffffffffff16319081150290604051600060405180830381858888f19350505050158015610707573d6000803e3d6000fd5b506001600a60146101000a81548160ff0219169083151502179055506107c4565b600a60009054906101000a900473ffffffffffffffffffffffffffffffffffffffff1673ffffffffffffffffffffffffffffffffffffffff166108fc3073ffffffffffffffffffffffffffffffffffffffff16319081150290604051600060405180830381858888f193505050501580156107a7573d6000803e3d6000fd5b506001600a60156101000a81548160ff0219169083151502179055505b6001600c60006101000a81548160ff0219169083151502179055505050565b600960009054906101000a900473ffffffffffffffffffffffffffffffffffffffff1681565b600a60169054906101000a900460ff1681565b505050565b600b5481565b600a60169054906101000a900460ff161561084157600080fd5b3073ffffffffffffffffffffffffffffffffffffffff16316108976040805190810160405280600381526020017f55524c0000000000000000000000000000000000000000000000000000000000815250611094565b1115610956577ffee95ecae0c8f7f0743ec0ad254c78ab75e5ecca9f1ddcd9f11f9a98124b96bc60405180806020018281038252604b8152602001807f4f7261636c697a6520717565727920776173204e4f542073656e742c20706c6581526020017f6173652061646420736f6d652045544820746f20636f76657220666f7220746881526020017f652071756572792066656500000000000000000000000000000000000000000081525060600191505060405180910390a1610b75565b7ffee95ecae0c8f7f0743ec0ad254c78ab75e5ecca9f1ddcd9f11f9a98124b96bc6040518080602001828103825260358152602001807f4f7261636c697a65207175657279207761732073656e742c207374616e64696e81526020017f6720627920666f722074686520616e737765722e2e000000000000000000000081525060400191505060405180910390a1610b586040805190810160405280600381526020017f55524c0000000000000000000000000000000000000000000000000000000000815250610b53606060405190810160405280602e81526020017f6a736f6e2868747470733a2f2f617069312e68712d706c617472692e64652f7281526020017f61696e66616c6c3f706c6163653d00000000000000000000000000000000000081525060078054600181600116156101000203166002900480601f016020809104026020016040519081016040528092919081815260200182805460018160011615610100020316600290048015610b135780601f10610ae857610100808354040283529160200191610b13565b820191906000526020600020905b815481529060010190602001808311610af657829003601f168201915b50505050506040805190810160405280600a81526020017f292e7261696e66616c6c00000000000000000000000000000000000000000000815250611464565b61149c565b506001600a60166101000a81548160ff0219169083151502179055505b565b60088054600181600116156101000203166002900480601f016020809104026020016040519081016040528092919081815260200182805460018160011615610100020316600290048015610c0d5780601f10610be257610100808354040283529160200191610c0d565b820191906000526020600020905b815481529060010190602001808311610bf057829003601f168201915b505050505081565b600a60009054906101000a900473ffffffffffffffffffffffffffffffffffffffff1681565b60078054600181600116156101000203166002900480601f016020809104026020016040519081016040528092919081815260200182805460018160011615610100020316600290048015610cd15780601f10610ca657610100808354040283529160200191610cd1565b820191906000526020600020905b815481529060010190602001808311610cb457829003601f168201915b505050505081565b600c60009054906101000a900460ff1681565b6000600654421115610d015760019050610d06565b600090505b90565b60065481565b600a60149054906101000a900460ff1681565b6000806000809054906101000a900473ffffffffffffffffffffffffffffffffffffffff1673ffffffffffffffffffffffffffffffffffffffff161480610d9257506000610d906000809054906101000a900473ffffffffffffffffffffffffffffffffffffffff16611a3e565b145b15610da357610da16000611a49565b505b6000809054906101000a900473ffffffffffffffffffffffffffffffffffffffff1673ffffffffffffffffffffffffffffffffffffffff166338cc48316040518163ffffffff167c0100000000000000000000000000000000000000000000000000000000028152600401602060405180830381600087803b158015610e2857600080fd5b505af1158015610e3c573d6000803e3d6000fd5b505050506040513d6020811015610e5257600080fd5b810190808051906020019092919050505073ffffffffffffffffffffffffffffffffffffffff16600160009054906101000a900473ffffffffffffffffffffffffffffffffffffffff1673ffffffffffffffffffffffffffffffffffffffff16141515610fba576000809054906101000a900473ffffffffffffffffffffffffffffffffffffffff1673ffffffffffffffffffffffffffffffffffffffff166338cc48316040518163ffffffff167c0100000000000000000000000000000000000000000000000000000000028152600401602060405180830381600087803b158015610f3e57600080fd5b505af1158015610f52573d6000803e3d6000fd5b505050506040513d6020811015610f6857600080fd5b8101908080519060200190929190505050600160006101000a81548173ffffffffffffffffffffffffffffffffffffffff021916908373ffffffffffffffffffffffffffffffffffffffff1602179055505b600160009054906101000a900473ffffffffffffffffffffffffffffffffffffffff1673ffffffffffffffffffffffffffffffffffffffff1663c281d19e6040518163ffffffff167c0100000000000000000000000000000000000000000000000000000000028152600401602060405180830381600087803b15801561104057600080fd5b505af1158015611054573d6000803e3d6000fd5b505050506040513d602081101561106a57600080fd5b8101908080519060200190929190505050905090565b600061108d826000611a5a565b9050919050565b6000806000809054906101000a900473ffffffffffffffffffffffffffffffffffffffff1673ffffffffffffffffffffffffffffffffffffffff161480611104575060006111026000809054906101000a900473ffffffffffffffffffffffffffffffffffffffff16611a3e565b145b15611115576111136000611a49565b505b6000809054906101000a900473ffffffffffffffffffffffffffffffffffffffff1673ffffffffffffffffffffffffffffffffffffffff166338cc48316040518163ffffffff167c0100000000000000000000000000000000000000000000000000000000028152600401602060405180830381600087803b15801561119a57600080fd5b505af11580156111ae573d6000803e3d6000fd5b505050506040513d60208110156111c457600080fd5b810190808051906020019092919050505073ffffffffffffffffffffffffffffffffffffffff16600160009054906101000a900473ffffffffffffffffffffffffffffffffffffffff1673ffffffffffffffffffffffffffffffffffffffff1614151561132c576000809054906101000a900473ffffffffffffffffffffffffffffffffffffffff1673ffffffffffffffffffffffffffffffffffffffff166338cc48316040518163ffffffff167c0100000000000000000000000000000000000000000000000000000000028152600401602060405180830381600087803b1580156112b057600080fd5b505af11580156112c4573d6000803e3d6000fd5b505050506040513d60208110156112da57600080fd5b8101908080519060200190929190505050600160006101000a81548173ffffffffffffffffffffffffffffffffffffffff021916908373ffffffffffffffffffffffffffffffffffffffff1602179055505b600160009054906101000a900473ffffffffffffffffffffffffffffffffffffffff1673ffffffffffffffffffffffffffffffffffffffff1663524f3889836040518263ffffffff167c01000000000000000000000000000000000000000000000000000000000281526004018080602001828103825283818151815260200191508051906020019080838360005b838110156113d65780820151818401526020810190506113bb565b50505050905090810190601f1680156114035780820380516001836020036101000a031916815260200191505b5092505050602060405180830381600087803b15801561142257600080fd5b505af1158015611436573d6000803e3d6000fd5b505050506040513d602081101561144c57600080fd5b81019080805190602001909291905050509050919050565b606061149384848460206040519081016040528060008152506020604051908101604052806000815250611d4e565b90509392505050565b60008060008060009054906101000a900473ffffffffffffffffffffffffffffffffffffffff1673ffffffffffffffffffffffffffffffffffffffff16148061150e5750600061150c6000809054906101000a900473ffffffffffffffffffffffffffffffffffffffff16611a3e565b145b1561151f5761151d6000611a49565b505b6000809054906101000a900473ffffffffffffffffffffffffffffffffffffffff1673ffffffffffffffffffffffffffffffffffffffff166338cc48316040518163ffffffff167c0100000000000000000000000000000000000000000000000000000000028152600401602060405180830381600087803b1580156115a457600080fd5b505af11580156115b8573d6000803e3d6000fd5b505050506040513d60208110156115ce57600080fd5b810190808051906020019092919050505073ffffffffffffffffffffffffffffffffffffffff16600160009054906101000a900473ffffffffffffffffffffffffffffffffffffffff1673ffffffffffffffffffffffffffffffffffffffff16141515611736576000809054906101000a900473ffffffffffffffffffffffffffffffffffffffff1673ffffffffffffffffffffffffffffffffffffffff166338cc48316040518163ffffffff167c0100000000000000000000000000000000000000000000000000000000028152600401602060405180830381600087803b1580156116ba57600080fd5b505af11580156116ce573d6000803e3d6000fd5b505050506040513d60208110156116e457600080fd5b8101908080519060200190929190505050600160006101000a81548173ffffffffffffffffffffffffffffffffffffffff021916908373ffffffffffffffffffffffffffffffffffffffff1602179055505b600160009054906101000a900473ffffffffffffffffffffffffffffffffffffffff1673ffffffffffffffffffffffffffffffffffffffff1663524f3889856040518263ffffffff167c01000000000000000000000000000000000000000000000000000000000281526004018080602001828103825283818151815260200191508051906020019080838360005b838110156117e05780820151818401526020810190506117c5565b50505050905090810190601f16801561180d5780820380516001836020036101000a031916815260200191505b5092505050602060405180830381600087803b15801561182c57600080fd5b505af1158015611840573d6000803e3d6000fd5b505050506040513d602081101561185657600080fd5b8101908080519060200190929190505050905062030d403a02670de0b6b3a76400000181111561188c5760006001029150611a37565b600160009054906101000a900473ffffffffffffffffffffffffffffffffffffffff1673ffffffffffffffffffffffffffffffffffffffff1663adf59f9982600087876040518563ffffffff167c0100000000000000000000000000000000000000000000000000000000028152600401808481526020018060200180602001838103835285818151815260200191508051906020019080838360005b83811015611944578082015181840152602081019050611929565b50505050905090810190601f1680156119715780820380516001836020036101000a031916815260200191505b50838103825284818151815260200191508051906020019080838360005b838110156119aa57808201518184015260208101905061198f565b50505050905090810190601f1680156119d75780820380516001836020036101000a031916815260200191505b50955050505050506020604051808303818588803b1580156119f857600080fd5b505af1158015611a0c573d6000803e3d6000fd5b50505050506040513d6020811015611a2357600080fd5b810190808051906020019092919050505091505b5092915050565b6000813b9050919050565b6000611a53612163565b9050919050565b6000606060008060008693506000925060009150600090505b8351811015611d2f5760307f0100000000000000000000000000000000000000000000000000000000000000028482815181101515611aae57fe5b9060200101517f010000000000000000000000000000000000000000000000000000000000000090047f0100000000000000000000000000000000000000000000000000000000000000027effffffffffffffffffffffffffffffffffffffffffffffffffffffffffffff191610158015611bc6575060397f0100000000000000000000000000000000000000000000000000000000000000028482815181101515611b5657fe5b9060200101517f010000000000000000000000000000000000000000000000000000000000000090047f0100000000000000000000000000000000000000000000000000000000000000027effffffffffffffffffffffffffffffffffffffffffffffffffffffffffffff191611155b15611c77578115611be9576000861415611bdf57611d2f565b8580600190039650505b600a8302925060308482815181101515611bff57fe5b9060200101517f010000000000000000000000000000000000000000000000000000000000000090047f0100000000000000000000000000000000000000000000000000000000000000027f010000000000000000000000000000000000000000000000000000000000000090040383019250611d22565b602e7f0100000000000000000000000000000000000000000000000000000000000000028482815181101515611ca957fe5b9060200101517f010000000000000000000000000000000000000000000000000000000000000090047f0100000000000000000000000000000000000000000000000000000000000000027effffffffffffffffffffffffffffffffffffffffffffffffffffffffffffff19161415611d2157600191505b5b8080600101915050611a73565b6000861115611d415785600a0a830292505b8294505050505092915050565b6060806060806060806060806000808e98508d97508c96508b95508a94508451865188518a518c51010101016040519080825280601f01601f191660200182016040528015611dac5781602001602082028038833980820191505090505b50935083925060009150600090505b8851811015611e6e578881815181101515611dd257fe5b9060200101517f010000000000000000000000000000000000000000000000000000000000000090047f0100000000000000000000000000000000000000000000000000000000000000028383806001019450815181101515611e3157fe5b9060200101907effffffffffffffffffffffffffffffffffffffffffffffffffffffffffffff1916908160001a9053508080600101915050611dbb565b600090505b8751811015611f26578781815181101515611e8a57fe5b9060200101517f010000000000000000000000000000000000000000000000000000000000000090047f0100000000000000000000000000000000000000000000000000000000000000028383806001019450815181101515611ee957fe5b9060200101907effffffffffffffffffffffffffffffffffffffffffffffffffffffffffffff1916908160001a9053508080600101915050611e73565b600090505b8651811015611fde578681815181101515611f4257fe5b9060200101517f010000000000000000000000000000000000000000000000000000000000000090047f0100000000000000000000000000000000000000000000000000000000000000028383806001019450815181101515611fa157fe5b9060200101907effffffffffffffffffffffffffffffffffffffffffffffffffffffffffffff1916908160001a9053508080600101915050611f2b565b600090505b8551811015612096578581815181101515611ffa57fe5b9060200101517f010000000000000000000000000000000000000000000000000000000000000090047f010000000000000000000000000000000000000000000000000000000000000002838380600101945081518110151561205957fe5b9060200101907effffffffffffffffffffffffffffffffffffffffffffffffffffffffffffff1916908160001a9053508080600101915050611fe3565b600090505b845181101561214e5784818151811015156120b257fe5b9060200101517f010000000000000000000000000000000000000000000000000000000000000090047f010000000000000000000000000000000000000000000000000000000000000002838380600101945081518110151561211157fe5b9060200101907effffffffffffffffffffffffffffffffffffffffffffffffffffffffffffff1916908160001a905350808060010191505061209b565b82995050505050505050505095945050505050565b600080612183731d3b2638a7cc9f2cb3d298a3da7a90b67e5506ed611a3e565b111561222457731d3b2638a7cc9f2cb3d298a3da7a90b67e5506ed6000806101000a81548173ffffffffffffffffffffffffffffffffffffffff021916908373ffffffffffffffffffffffffffffffffffffffff16021790555061221b6040805190810160405280600b81526020017f6574685f6d61696e6e65740000000000000000000000000000000000000000008152506125f2565b600190506125ef565b600061224373c03a2615d5efaf5f49f60b7bb6583eaec212fdf1611a3e565b11156122e45773c03a2615d5efaf5f49f60b7bb6583eaec212fdf16000806101000a81548173ffffffffffffffffffffffffffffffffffffffff021916908373ffffffffffffffffffffffffffffffffffffffff1602179055506122db6040805190810160405280600c81526020017f6574685f726f707374656e3300000000000000000000000000000000000000008152506125f2565b600190506125ef565b600061230373b7a07bcf2ba2f2703b24c0691b5278999c59ac7e611a3e565b11156123a45773b7a07bcf2ba2f2703b24c0691b5278999c59ac7e6000806101000a81548173ffffffffffffffffffffffffffffffffffffffff021916908373ffffffffffffffffffffffffffffffffffffffff16021790555061239b6040805190810160405280600981526020017f6574685f6b6f76616e00000000000000000000000000000000000000000000008152506125f2565b600190506125ef565b60006123c373146500cfd35b22e4a392fe0adc06de1a1368ed48611a3e565b11156124645773146500cfd35b22e4a392fe0adc06de1a1368ed486000806101000a81548173ffffffffffffffffffffffffffffffffffffffff021916908373ffffffffffffffffffffffffffffffffffffffff16021790555061245b6040805190810160405280600b81526020017f6574685f72696e6b6562790000000000000000000000000000000000000000008152506125f2565b600190506125ef565b6000612483736f485c8bf6fc43ea212e93bbf8ce046c7f1cb475611a3e565b11156124e657736f485c8bf6fc43ea212e93bbf8ce046c7f1cb4756000806101000a81548173ffffffffffffffffffffffffffffffffffffffff021916908373ffffffffffffffffffffffffffffffffffffffff160217905550600190506125ef565b60006125057320e12a1f859b3feae5fb2a0a32c18f5a65555bbf611a3e565b1115612568577320e12a1f859b3feae5fb2a0a32c18f5a65555bbf6000806101000a81548173ffffffffffffffffffffffffffffffffffffffff021916908373ffffffffffffffffffffffffffffffffffffffff160217905550600190506125ef565b60006125877351efaf4c8b3c9afbd5ab9f4bbc82784ab6ef8faa611a3e565b11156125ea577351efaf4c8b3c9afbd5ab9f4bbc82784ab6ef8faa6000806101000a81548173ffffffffffffffffffffffffffffffffffffffff021916908373ffffffffffffffffffffffffffffffffffffffff160217905550600190506125ef565b600090505b90565b806002908051906020019061260892919061260c565b5050565b828054600181600116156101000203166002900490600052602060002090601f016020900481019282601f1061264d57805160ff191683800117855561267b565b8280016001018555821561267b579182015b8281111561267a57825182559160200191906001019061265f565b5b509050612688919061268c565b5090565b6126ae91905b808211156126aa576000816000905550600101612692565b5090565b905600a165627a7a72305820d4b4e295f29cc62f90bc715923b098af87ec56ed731d0860c74cadcca9e2effd0029",
  "source": "pragma solidity ^0.4.8;\r\n\r\nimport \"installed_contracts/oraclize-api/contracts/usingOraclize.sol\"; \r\n\r\ncontract WeatherInsurance is usingOraclize {\r\n    uint public startDate;\r\n    uint public endDate;\r\n    string public place;\r\n    string public trigger;\r\n    address public customer;\r\n    address public insurance;\r\n    bool public payoutCustomer = false;\r\n    bool public payoutInsurance = false;\r\n    bool public blocked = false;\r\n    uint public requestResult;\r\n    bool public receivedResult = false;\r\n\r\n\r\n    event LogInfo(string description);\r\n\r\n    constructor(uint _startDate, uint _endDate, string _place, string _trigger, uint _payout, address _customer) public payable{\r\n        require(msg.value >= _payout);\r\n        startDate = _startDate;\r\n        endDate = _endDate;\r\n        place = _place;\r\n        trigger = _trigger;\r\n        insurance = msg.sender;\r\n        customer = _customer;\r\n        OAR = OraclizeAddrResolverI(0x4BC8236a5Ce009Ce0808E349a65a869aEDB323BA);\r\n    }\r\n    \r\n    function checkPayout() view public returns (bool){\r\n      if(now > endDate) {\r\n          return true;\r\n      } else {\r\n          return false;\r\n      }\r\n    }\r\n    \r\n    function __callback(bytes32 myid, string result) {\r\n        if(receivedResult) revert();\r\n        if (msg.sender != oraclize_cbAddress()) revert();\r\n        requestResult = parseInt(result);\r\n        if(requestResult >= parseInt(trigger)) {\r\n            customer.transfer(address(this).balance);\r\n            payoutCustomer = true;\r\n        } else {\r\n            insurance.transfer(address(this).balance);\r\n            payoutInsurance = true;\r\n        }\r\n        receivedResult = true;\r\n    }\r\n    \r\n    function isTriggered() public payable {\r\n        if(blocked) revert();\r\n        if (oraclize_getPrice(\"URL\") > address(this).balance) {\r\n            emit LogInfo(\"Oraclize query was NOT sent, please add some ETH to cover for the query fee\");\r\n        } else {\r\n            emit LogInfo(\"Oraclize query was sent, standing by for the answer..\");\r\n            oraclize_query(\"URL\", strConcat(\"json(https://api1.hq-platri.de/rainfall?place=\", place, \").rainfall\"));\r\n            blocked = true;\r\n        }\r\n\r\n    }\r\n\r\n}",
  "sourcePath": "D:\\Final\\VersicherungsBackend\\smart contracts\\contracts\\WeatherInsurance.sol",
  "compiler": {
    "name": "solc",
    "version": "0.4.24+commit.e67f0147.Emscripten.clang"
  },
  "schemaVersion": "2.0.1",
  "updatedAt": "2018-12-14T19:53:05.333Z"
}